:10000000008000203D0F0000850F0000870F0000DA
:1000100000000000000000000000000000000000E0
:10002000000000000000000000000000890F000038
:1000300000000000000000008B0F00008D0F00008A
:100040008F0F00008F0F0000D50D00008F0F0000F4
:100050008F0F000000000000210A00008F0F000039
:10006000C10C00001D0D0000790D00008F0F000075
:100070008F0F00008F0F00008F0F00008F0F000008
:100080008F0F00008F0F00008F0F00008F0F0000F8
:100090008F0F00008F0F00008F0F00008F0F0000E8
:1000A0008F0F00008F0F0000000000000000000014
:1000B0000000000000000000000000000000000040
:1000C00010B5064C2378002B07D1054B002B02D02E
:1000D000044800E000BF0123237010BD740000201D
:1000E00000000000DC0F0000044B10B5002B03D013
:1000F0000349044800E000BF10BDC04600000000F6
:1001000078000020DC0F0000164B002B00D1144BB0
:100110009D46402292029A1A924600218B460F4633
:100120001348144A121A00F065F80F4B002B00D048
:1001300098470E4B002B00D0984700200021040068
:100140000D000D48002802D00C4800E000BF00F070
:100150002DF82000290000F0E3F800F011F8C04667
:1001600000000800008000200000000000000000E7
:1001700074000020140100200000000000000000B6
:10018000084B10B50400002B02D0002100E000BF96
:10019000054B1868836A002B00D09847200000F0B8
:1001A00031F8C04600000000A80F000070B500261E
:1001B0000C4D0D4C641BA410A64209D1002600F082
:1001C000E7FE0A4D0A4C641BA410A64205D170BD7F
:1001D000B300EB5898470136EEE7B300EB58984769
:1001E0000136F2E76C0000206C0000206C0000205B
:1001F0007000002003001218934200D1704719705C
:100200000133F9E7FEE7C0461D4B1B78012B00D0F8
:1002100070471C4B1B681B07FAD1F0221A4B1B6856
:10022000134018D1194B1B6813421CD0154B1B6887
:100230001B07EDD1F022144B1B681340402BE7D174
:10024000124B1B681342E3D18022C1230121D20546
:10025000DB00D150DCE7102B01D0302BEAD10B4B67
:100260001B681342E6D10A4B0A4A1A6080220A4BE5
:1002700012021A60024B1B78012BD7D0C8E7C04688
:10028000E00F00F0E40F00F0E80F00F0EC0F00F0DA
:1002900004050040DFFF07C0186C004030B50D4A70
:1002A000A12510780122140084400B4920000B4C3A
:1002B0000B782478ED00A240094C002B06D1605148
:1002C000084822505A4253410B7030BD6251054AD2
:1002D000A050F7E70E010020900000200F01002041
:1002E00000F001400405000010B501210C2000F0D1
:1002F0007DFB074B187800F0A5FA064800F0A8FC33
:10030000054800F0A5FC054800F0A2FC10BDC04661
:100310000F010020AC0F0000B40F0000BC0F000064
:10032000F0B557464E464546DE46E0B5DE4BDF4F5C
:10033000DF4E85B01A0039003000984600F03CFCD2
:10034000002800D0AAE1DB4D42463900280000F029
:1003500033FC002800D09CE1D74C424639002000F5
:1003600000F02AFC8046002800D066E1802300903F
:100370005B0005220021300000F07CFC012300938B
:1003800080230F229B000121280000F073FC4346CC
:100390001422009302210423200000F06BFC00F0E3
:1003A0006DFAC6490C2000F093FA00F0E9F9002834
:1003B00000D03DE1C24B18009A4600F0EDF900284C
:1003C00000D030E1BF4B18009B4600F0E5F9002853
:1003D00000D023E1BC4B1800994600F0DDF900285D
:1003E00000D016E1B94B1800984600F0D5F9002866
:1003F00000D009E1B64F380000F0CEF9002800D057
:10040000FDE0B44800F0C8F9002800D0F2E0B2489E
:1004100000F0C2F9002800D0E7E05346A0211B7885
:10042000490030009A4600F021FC03900C2000F0B7
:10043000CFFA03990200504600F0E0F9002800D0FE
:10044000CEE05B46A2211B78490028009A4600F0C6
:100450000DFC83460C2000F0BBFA594602005046C2
:1004600000F0CCF9002800D0B5E0A421994B490058
:100470001B7820009A4600F0F9FB0C2183463000DF
:1004800000F0F0FB59460200504600F0B7F9002892
:1004900000D09BE0A421904B49001B7820009A4695
:1004A00000F0E4FB00218346300000F0DBFB5946FE
:1004B0000200504600F0A2F9002800D081E0A421FB
:1004C0004B46490020001E7800F0D0FB0C218246EC
:1004D000280000F0C7FB51460200300000F08EF902
:1004E000002869D1A4214346490020001E7800F06D
:1004F000BDFB00218246280000F0B4FB51460200FB
:10050000300000F07BF9002851D1A42120004900DF
:100510003D7800F0ABFB04000C2000F059FA2100FC
:100520000200280000F06AF900283BD14B461878F9
:1005300000F088F9002830D14346187800F082F99D
:10054000002825D1387800F07DF900281BD1614BB7
:10055000187800F077F9002810D15F4B187800F078
:1005600071F9002805D10C2000F016FAFFF7BCFE47
:10057000FEE70022110000F0B1F8F4E700221100BC
:1005800000F0ACF8E9E70022110000F0A7F8DEE780
:100590000022110000F0A2F8D4E70022110000F0C0
:1005A0009DF8C9E70022110000F098F8BEE700228C
:1005B000110000F093F8A8E70022110000F08EF877
:1005C00090E70022110000F089F878E7002211007E
:1005D00000F084F85EE70022110000F07FF844E7A5
:1005E0000022110000F07AF82BE70022110000F041
:1005F00075F812E70022110000F070F807E70022FA
:10060000110000F06BF8FCE60022110000F066F823
:10061000F0E60022110000F061F8E3E6002211008C
:1006200000F05CF8D6E60022110000F057F8C9E6A9
:100630000022110000F052F8BCE600221100002751
:1006400000F04CF8802339005B0030000097052251
:1006500000F010FB3A003900404600F03FF801215D
:10066000802300919B0028000F2200F003FB3A003A
:100670003900404600F032F820000097042314228D
:10068000022100F0F7FA3A003900404600F026F85F
:1006900085E60022110000F021F85DE6002211003D
:1006A00000F01CF84FE6C0469D02000064000020E8
:1006B000AC0F0000B40F0000BC0F00006000002071
:1006C0000E0100200F010020110100200C0100206C
:1006D00010010020120100200D010020BFF34F8FF8
:1006E000024B034ADA60BFF34F8FFEE700ED00E0F4
:1006F0000400FA0572B6024A1368013313607047AA
:1007000094000020034A1368013B1360002B00D1C2
:1007100062B6704794000020FF22032330B5140016
:10072000C5B22B40DB009C4089010A40E4439A405B
:10073000002814DB104B80089C46C02380006044D6
:100740009B00C1580C402243C2501F23C0211D40B2
:100750001E3BAB40084A49005350136030BD0F2385
:1007600006492B408C46083B9B089B006344D96993
:100770000C402243DA61E8E700E100E000ED00E030
:10078000044B1A78002A03D1002001321A707047F6
:100790008520FCE79C0000200123F0B54646D646A4
:1007A0004F469A46134B814600249846C0B5124ED8
:1007B0005546A540FFF79EFF2E4204D043461B68D6
:1007C0001F002F400DD00134FFF79CFFAE43E4B271
:1007D000002EEDD1042738001CBC90469946A24655
:1007E000F0BD1D4343461D604B461C70FFF78AFF5A
:1007F000F1E7C04698000020FFFF000010B5002977
:1008000014D0002A12D0012383401C0410D00A4CBB
:1008100024681C420ED0094BC0009C46A2236044B1
:10082000DB00C150064BC250002000E00E2010BD7E
:100830000720FCE70820FAE79800002000F00140BC
:10084000140500000123F0228340120313420CD14F
:100850001A0404D100200649064A8B507047064A04
:1008600012681A42F6D10820F8E70720F6E7C046DA
:1008700000F00140040500009800002070B5352507
:10088000114C635D002B1DD13422013B6361A361D8
:10089000E36123626362A362E362236303210620B0
:1008A000A35423606360A360E3602361FFF734FF18
:1008B000C1238021054A9B000906D1500123002055
:1008C000635570BD0820FCE7A000002000600040D8
:1008D000F0B514252C4A030014186557082001357B
:1008E0000FD1887800280DD01068013045D05068AD
:1008F000013044D09068013043D0D46804200134E2
:1009000018D0F0BDFE2222750122A02049789A401D
:10091000C00501290AD01D494250A0220321C1333C
:10092000FF339B00D20599500020EAE7A121C900BE
:100930004250F2E70138164DD4182075AC46002419
:10094000A2258000ED00145060444659114F0A78EA
:100950003E40C0271204BF023A4080274C787F03F4
:1009600024053C40F827465122437F011C0246598A
:100970003C40224332434251C6E70020DBE70120DE
:10098000D9E70220D7E7C046A00000200C050000F0
:1009900000600040FFE0ECFF0A4B0B4A18181423DC
:1009A0009446A222032110B5C356D2009B00634493
:1009B0009C580648214320439850C046C046C04634
:1009C000995010BDA000002000600040031F0000EF
:1009D000044B1818044B007D9C4640B28000C0B206
:1009E00060447047A000002000600040094B10B533
:1009F00018181423084AC3569446A2204C1EA1413D
:100A00009B006344C0001A58044C0905224011435E
:100A1000195010BDA000002000600040FFFFEFFF54
:100A2000F0B54646D6464F46C0B55B4A0026136829
:100A3000012B00D198E0594B1A68012A00D187E0B8
:100A4000574B1A68012A00D176E0564B1A68012AE2
:100A500039D0554B00241B68012B61D0330741D19D
:100A6000002E04DB1CBC90469946A246F0BD342201
:100A70004E4B99564A1CF5D0C9B2C022080090438B
:100A80001A18127D52B29200D658002EEAD0A02336
:100A90000125DB059C46E023854082006244DB00A3
:100AA000D35889099B039B0F2C4205D1032BD9D125
:100AB000032963D0B047D5E7022BD3D10329F9D15D
:100AC000C027BF025CE0C122394992008958082240
:100AD0000A42BED000211960334B16431B68012B1C
:100AE0001ED00024A223DB00984603239A462F4BF6
:100AF0000127002599463E420DD041462C4AAB00C5
:100B00009A18505851585246090C11404A46C00490
:100B1000C00E9B58984701357F00042DEBD19FE70D
:100B20000022214B1A6080231B061E43A022A22311
:100B3000D205DB00D45891E7C1221D4992008958A3
:100B400004220A4200D180E70021164319607CE7A5
:100B5000C12217499200895802220A4200D16FE748
:100B60000021164319606BE7C121114889004658DE
:100B70001E4000D15FE7002313605CE78027BF02BF
:100B8000E023DB00D5580B4C2540D550D4583C43CE
:100B9000D450B04766E7C0460061004004610040A1
:100BA000086100400C6100407C610040A000002012
:100BB00000600040FFFFFCFFF8B5204E43791700AE
:100BC000F25C04000D00002A34D100292ED004204C
:100BD000E9782056FFF7A0FD6379194A69689B0000
:100BE0009950002F28D0174A21689F500122164F94
:100BF0006B78C859134090430343CB5103212368BA
:100C00000437D859AB7888430B4021680343CB5154
:100C10000F2123680837D8592B7888430B400343AA
:100C200000202168CB516379F254F8BD074DDB00F9
:100C3000ED18CCE70820F8E70720F6E7D8000020F9
:100C4000E8000020DC00002004050000C40F0000C4
:100C50000122022103681A604379014AD154704786
:100C6000D8000020006840187047C046006840184F
:100C70007047C046F0B5022705AC2478FF37A4467C
:100C800080248F400668A4003559BD43355105685E
:100C90002E5933432B51802364465B028B40002C3A
:100CA00009D1C2240568A4002B5151310368FF31DA
:100CB0008900CA50F0BDC1240568A4002B51F4E797
:100CC000F0B5C646104B0025984600B50F4C104EA7
:100CD000104F114BE018236880B2002B0DD0C123B8
:100CE0009B00F25880235B02AB401A4205D00023E0
:100CF0002360434619683B68984701350434042D46
:100D0000E7D104BC9046F0BDE800002040810040DF
:100D100000800040DC0000200080FFFFF0B5C646E8
:100D2000114B0025984600B5104C114E114FE02391
:100D3000DB01E018236880B2002B0DD0C1239B009B
:100D4000F25880235B02AB401A4205D00023236097
:100D5000434659687B68984701350434042DE6D131
:100D600004BC9046F0BDC046E80000204091004021
:100D700000900040DC000020F0B5C646114B002575
:100D8000984600B5104C114E114FC023DB01E018FE
:100D9000236880B2002B0DD0C1239B00F258802322
:100DA0005B02AB401A4205D000232360434699689A
:100DB000BB68984701350434042DE6D104BC904645
:100DC000F0BDC046E800002040A1004000A0004067
:100DD000DC000020C12210B5504B92009A5884B01C
:100DE00092055AD54E4A1168002956D0002111604B
:100DF000C22281219200890099504A4B5A7D002AD3
:100E000002D10121484A1160022269460A709021EC
:100E10004248C9004258425069460392DA7C68460B
:100E20000A72DA68196801920022DA745B689847DE
:100E30003E4A1368002B12D03A4B188A997C8142A3
:100E40005FD800201060002909D06A461070117226
:100E50009A689874196801925B6868469847344BA1
:100E60001A68002A17D000221A602E4B5A7D002AD9
:100E700002D00121294A1160DA7C002A0BD0684691
:100E80001A7D01210272DA6801700192002219684C
:100E9000DA745B68984704B010BDC1231F4A9B00F9
:100EA000D3585B07C4D5234B19680029C0D0002153
:100EB000A32419601B4BE400187DD96812590A5409
:100EC0001A7DD87C0132D2B21A751A7D9042AFD108
:100ED0005A7D002A02D10120134A1060C2228124C7
:100EE0000E489200A40084506C461A7D01202272A4
:100EF000002220700191DA74196868465B6898478F
:100F000096E7002111601A8A9968895C1A8A013271
:100F100092B21A82014A084BD150A0E7002000404B
:100F200024210040F4000020042000401C21004047
:100F300044210040082100401C05000003210A480C
:100F400002680A430260094802680A4302600849CD
:100F5000084A094B9B1A03DD043BC858D050FBDC00
:100F600006488047064800472405004054050040D5
:100F7000E40F0000000000207400002009020000BF
:100F800009010000FEE7FEE7FEE7FEE7FEE7FEE7F9
:100F9000F8B5C046F8BC08BC9E467047F8B5C046D8
:100FA000F8BC08BC9E46704700000020008000404E
:100FB00008000000009000400901000000A000406F
:100FC0000A02000000010303000000000900000302
:0C0FD00000000000090000030000000009
:080FDC002CF1FF7F0100000071
:100FE40000000000000000000000000000000000FD
:100FF40000000000000000000000000000000000ED
:1010040000000000000000000000000000000000DC
:1010140000000000000000000000000000000000CC
:1010240000000000000000000000000000000000BC
:1010340000000000000000000000000000000000AC
:10104400030001000000030100000000E9000000AB
:04105400C1000000D7
:0400000300000F3DAD
:00000001FF
