:1000000018080020610B0000FB0B0000070C00002B
:1000100000000000000000000000000000000000E0
:10002000000000000000000000000000350C00008F
:100030000000000000000000370C0000390C000038
:100040003B0C00003D0C0000710900003F0C00005B
:10005000410C000000000000C1020000430C000041
:100060004B0700005707000063070000450C000025
:10007000470C0000490C00004B0C00004D0C000028
:100080004F0C0000510C0000530C0000550C0000F8
:10009000570C0000590C00005B0C00005D0C0000C8
:1000A0005F0C0000610C0000000000000000000078
:1000B0000000000000000000000000000000000040
:1000C000764940180068012800D00020704752008F
:1000D0000A4399001143009A12020A430199090444
:1000E00011436F4A8000115070476D4A800010180C
:1000F00002686C4B134003600268090411430160FD
:10010000704771B581B00020C0430423140002D1B0
:100110000425052300E00025644C00E06D1C9D4291
:1001200011D2AE00A619009636688642F6D1019B20
:10013000E3181D7500980160002A03D10198611928
:1001400030228854280040B276BD58490022D2435C
:100150008300CA50042802DB08183021425470473B
:1001600038B5514C3520205C002801D0082032BD24
:10017000FF2220212000143000F024F9002528005F
:10018000FFF7E3FF6D1C052DF9DB0321062000F0CE
:1001900037F9802000064649086001203521605467
:1001A000002032BDF0B583B006000D0000243E48AB
:1001B00080190027FF4314214156B94201D0082479
:1001C0003CE0A97800290AD10121C9430175012029
:1001D000B04038496A78012A27D1086026E0012218
:1001E00000213000FFF78DFFB8421CD069782A78D3
:1001F000314B80001B181868304F07401F6018688B
:1002000084463702F820400138401704C022920289
:100210003A400243090580204003014011436046F3
:1002200001431960D3E7042408E048600194009476
:100230000023012201213000FFF749FF2000FEBD0D
:1002400019490818142140561B49800008180268F3
:1002500003211143F82252010A43026000BF00BF8C
:1002600000BF0160704710490818142140568006ED
:10027000000E0A49401870470A0000D001220A49BE
:100280000818142140560C49800008180168454B95
:100290000B401105194301607047000000600040E9
:1002A00000070050FFFFFCFF18080020180800207E
:1002B000046300400805005010650040FFE0ECFFBB
:1002C000F8B500240094802676000125042730B27A
:1002D000FFF7F6FE002809D037480068284005D00F
:1002E000002036B23049711808602C436D00361D6D
:1002F0007F1EECD1BE204000FFF7E2FE002809D0AF
:1003000000202F4908602000802424060443294847
:1003100000680090264F200712D0012500262542B4
:100320000AD0B20025488118086809688903890F36
:10033000C004C00EBA5890476D00761C042EEED350
:10034000002C2ED5342038560021C943884228D0AD
:10035000C0B20400C0218C43391914228956890087
:100360007D5829001DD00006860F1048A100405876
:100370008003800F0121A140009A0A4002D0022888
:100380000FD101E003280CD1032E07D1022801D19F
:10039000032100E002212000FFF7A7FE310020002A
:1003A000A847F1BDFFFFEFFF0060004000070050CD
:1003B000180800201005005004630040106500403C
:1003C0007C6100401206130A1A43130C1A4300BF43
:1003D000130030B414001500103902D310393CC09A
:1003E000FCD2490700D30CC000D504C0890002D359
:1003F0000280801C002900D5027030BC70470000CC
:1004000010B5C20018231340FF249C40E243890723
:10041000090E9940030007D50C4B0407240F083C34
:10042000A408A4001B1903E0094C83089B00E318EF
:100430001C682240114319600121C006C00E814092
:10044000044801600448016010BD00BF1CED00E0DD
:1004500000E400E080E200E000E100E038B500BF29
:1004600063A000F024F900BF63A4200000F01FF98E
:1004700063A5280000F01BF901210C20FFF7FCFE0A
:10048000200000F010F9280000F00DF931BD000047
:1004900080B501210C20FFF7EFFE00BF54A000F053
:1004A000F9F800BF54A000F0F5F800BF54A000F028
:1004B000F1F801BDF8B54B4D4B4C2200290000BFAF
:1004C0004BA000F0A1F8002803D00022002100F08A
:1004D00065F900BF48A722002900380000F094F811
:1004E000002803D00022002100F058F944A6220081
:1004F0002900300000F088F8040003D00022002119
:1005000000F04CF90020009080235B0006220021BF
:1005100037A000F0E3F8002C04D0002200212000D6
:1005200000F03CF90020009080239B000E22012166
:10053000380000F0D3F8002C04D000220021200065
:1005400000F02CF9012000908302142202213000D7
:1005500000F0C4F8002C04D000220021200000F09C
:100560001DF9F1BD38B5FFF7A5FFFFF7F9FD1F4CE9
:10057000211D0C20FFF716FE00F036F9002803D0ED
:100580000022002100F00AF9200000F037F90028CD
:1005900003D00022002100F001F90C20FFF763FED8
:1005A0000500A221490000BF13A000684018010007
:1005B0002A00207800F042F9002803D00022002110
:1005C00000F0ECF8207800F057F9002803D0002262
:1005D000002100F0E3F80C20FFF732FEFFF758FF90
:1005E000FEE70000000000205D040000080000207D
:1005F0000080004008000000009000400901000059
:1006000000A000400A020000F8B504000E00170028
:100610006079574D295C002901D00820F2BD002ED9
:1006200003D100BF57A1C0000E18F1780420205656
:10063000FFF7E6FE607980002818716801613800D4
:1006400026D06079800028184760717827680120DB
:10065000484ABA58824301401143464AB950B178DA
:10066000121DBA5803239A438907890F1143A12207
:10067000D200B95031780832BA1813680F26B34344
:100680000907090F19431160617968540020F2BD10
:100690000720F2BD0121026811600221FFE7344A00
:1006A00040791154704701210068016070470121B1
:1006B0000068C160704730B5802464028C400068D7
:1006C000C125AD004519002B01D02C6000E06C6005
:1006D00089004018A821C900425030BDF8B504680F
:1006E0008025AD0065192E68FF27BF1C8F40BE43D3
:1006F0002E602C681C432C60069BFFF7DCFFF1BDCD
:10070000F8B506000027002488000090184DA000CE
:10071000A0214900401800B231180A68002A10D000
:10072000C1229200B25880235B02A340134008D03C
:100730000F6029001031009A89582A1D009BD25859
:100740009047641C042CE2D3F1BD80B500210A4817
:10075000FFF7D6FF01BD80B501210848FFF7D0FFA4
:1007600001BD80B502210648FFF7CAFF01BD0000A8
:100770005008002004050000008000400090004068
:1007800000A0004000010303000000000900000376
:10079000000000000900000300000000BFF34F8FBD
:1007A000034804490860BFF34F8F00BFFDE700BF57
:1007B0000400FA050CED00E00121814088B2002818
:1007C0000EE001218140F02000030840401E8041DE
:1007D000C00F704735494968012282400A40100025
:1007E00000D00120C0B2704730480178002903D101
:1007F000012101700020704785207047F1B5042465
:100800002B4D002600F05AF80127B7403D420BD08F
:10081000F0B2FFF7DFFF002806D1244841683943D2
:10082000416000980670002400F04EF8002C03D0C0
:10083000BD43761C002DE5D12000F2BD70B504004B
:100840000D001600002D01D0002E01D10E2070BD2C
:10085000FFF7B2FF002801D1072070BD2000FFF78D
:10086000B9FF002801D1082070BD1248E1004018EE
:1008700005604660002070BD10B50400FFF7A1FFC1
:10088000002801D1072010BD2000FFF795FF0028A8
:1008900006D02000FFF79EFF002801D1082010BDE0
:1008A0000120A04004490860002010BD84080020F9
:1008B000FFFF000010F5014004F5014072B6064844
:1008C0000168491C0160704703480168491E0160C6
:1008D00000D162B6704700008C0800204058002804
:1008E00004E0C122920080580140080000D001209D
:1008F000C0B2704700201C49086012488168028A13
:10090000895C028A521C02821848016070470020EC
:10091000534908600B48017D524A1268C3685A5413
:10092000017D491C0175704700B585B069460122FB
:100930000A7008724C4AD06801900020D0740DE013
:10094000000000006C08002000B585B000216A4658
:1009500011701072444A9068019091741168684651
:100960005268904705B000BD1C2100401C25004086
:10097000F0B585B03C4C8125AD000027374E710D98
:100980003000FFF7AEFF002820D092214900300050
:10099000FFF7A4FF002819D0354887603548056067
:1009A000607D002801D1012070606846022101703D
:1009B0002E490A680A600392E17C0172E0680190A6
:1009C000E77421686846626890471CE004213000A3
:1009D000FFF787FF002816D0842149003000FFF779
:1009E0007DFF00280FD0FFF792FFE07C217D884239
:1009F00009D1607D002801D1012070601D4805608B
:100A0000207DFFF791FF8E2149003000FFF766FF40
:100A100000280CD0A07C218A814202D2FFF76AFF15
:100A200005E013490F60010001D0FFF78DFFA221FF
:100A300049003000FFF752FF00280CD00C488762B5
:100A4000607D002801D001203060E07C002802D0C9
:100A5000207DFFF769FF05B0F0BD000000200040D9
:100A600008210040182500406C0800208024004028
:100A70001C2100400823004010B5F0220F20184927
:100A80000B78012B1BD14B68034018D18B681342A4
:100A900002D1CC6814400CD0F0241C40102C02D1A0
:100AA000CC68144005D01340302B08D1CB681340DC
:100AB00005D10C4B0C4C2360E30B0C4C23600B78E2
:100AC000012B0CD14B68184009D188681040402890
:100AD00005D1C868024002D101200549086010BD57
:100AE000E00F00F0DFFF07C004050040186C004075
:100AF0000806004070B40121002213E00468001DC4
:100B00000C4202D04D466D1E64192260241D1B1F2D
:100B1000042BFAD225009E0701D52280AD1C0B4084
:100B200000D02A700368001D002BE7D170BC70470D
:100B300030B401210268001D002A0FD00368C318D9
:100B4000446808300C4202D04D466D1E64191D6881
:100B500025601B1D241D121FECD0F8E730BC704728
:100B60000321064802680A430260054802680A43F6
:100B70000260044880470448004700002405004004
:100B800054050040790A0000290C000010B50749FF
:100B900079441831064C7C44163404E0081D0A6878
:100BA000891888470100A142F8D110BD0800000053
:100BB0002800000041FFFFFF780000001808002017
:100BC000000000006DFFFFFF14000000480000005F
:100BD00000000020000000000120C046002801D0D5
:100BE000FFF7D4FF0020C046C046FFF7BBFC00F073
:100BF00000F880B500F002F801BDFEE70746384670
:100C000000F002F8FBE7FEE7202109032631182057
:100C1000ABBEF9E700000301000000000000000087
:100C2000020001000024F400C046C046C046C04691
:100C3000FFF7D2FFFEE7FEE7FEE7FEE7FEE7FEE78F
:100C4000FEE7FEE7FEE7FEE7FEE7FEE7FEE7FEE77C
:100C5000FEE7FEE7FEE7FEE7FEE7FEE7FEE7FEE76C
:020C6000FEE7AD
:0400000500000C29C2
:00000001FF
