:10D000000811002075E40000C7DB00000FE50000F8
:10D010000000000000000000000000000000000010
:10D020000000000000000000000000001BE5000000
:10D0300000000000000000003DE500003FE50000AA
:10D0400041E5000043E5000045E5000047E500003C
:10D0500049E500000000000085DF00004BE500000E
:10D060004DE500004FE5000051E5000053E50000EC
:10D0700055E5000057E5000059E500005BE50000BC
:10D080005DE500002BD500005FE5000061E50000D4
:10D0900043D5000063E5000009E3000065E50000FA
:10D0A00067E5000069E500000000000000000000E6
:10D0B0000000000000000000000000000000000070
:10D0C00010B5C20018231340FF249C40E243890797
:10D0D000090E9940002804D5A24B0007000F08381C
:10D0E00000E0A14B80088000181803681A40114323
:10D0F000016010BD401E00BF00BF00BF00BF00BFE9
:10D1000000BF00BF00BF00BF00BF00BF00BFF1D124
:10D11000704738B580208002944908609448802187
:10D12000490201640160934C012525602F20FFF71F
:10D13000E1FF6560B34C002525612F20FFF7DAFF82
:10D14000E57031BDF8B5AF4EF568002D37D000243D
:10D15000AD4800683169401A07023F0A28688742D3
:10D160001AD33F1A24182800ED69017C002911D038
:10D170000021017442698169F369180008D0100028
:10D180009847002806D00022002100F0BFFA01E0F5
:10D1900008009047002DE1D1B0787178814206D126
:10D1A000401CB070C0B2022801D10020B070B0782D
:10D1B00080003018446180204003BF490860F1BD01
:10D1C000FFB5904AD0680390107869460871002036
:10D1D00069460B795C1E0C710121002B45D09368C8
:10D1E0006C462479E4001B1900931B7817E02C008F
:10D1F000ED69002D13D0BD42F9D1AC4207D1F669DB
:10D20000D660002E03D1AD4E3160106111712E68D1
:10D21000ED69E561002D02D02C68A4192C60009DF9
:10D220006D78DCB2AC42D3D0009C6468DBB21825C8
:10D230005D4364195B1C009EB678DDB2B54200D137
:10D2400000232578022D02D0032D07D0E7E764687C
:10D250000294D66834002500029FCAE7D468002CE7
:10D26000DDD02074E469D460F8E7D268039B9A4269
:10D2700000D0012004B0F0BDFCB5624AD168019134
:10D28000137800211C00631EDBB2002C06D1D0688D
:10D29000019A904264D00120F6BDD460002830D1BC
:10D2A0009468DD00641925786678B542EAD066682E
:10D2B00018276F43F6196D1C2570A778EDB2BD4293
:10D2C00000D1217074683578012DE9D1257C002DBD
:10D2D000E6D1B5686560F568A5603569E560756992
:10D2E000A5611579002D00D061601569666800960A
:10D2F000761B3602360ABE4FBE4205D2A5687519A6
:10D300000AE00400E069F0E7009EAD1B2D022D0A43
:10D31000A668B54202D2751B256000E021606160FD
:10D32000A16001252574E161D668002EB5D037686B
:10D330002568AF4203D37D1B3560E661ADE70096FB
:10D340003768AF4205D2ED1B0096F669002E02D079
:10D35000F6E77F1B37602560E661009DEC619DE785
:10D360000020F6BD1CED00E000E400E080E100E0FC
:10D370000813014004100140FEB52248C06800288F
:10D380003DD000680290204C206800901D48006944
:10D390000190AA4D00980199461A2E40F61C80274C
:10D3A000BF021848C078002810D1B6487908016437
:10D3B0000160B5480760B54807600120B4490860BE
:10D3C0002F20FFF797FE01200E49C8700298864271
:10D3D00000D20600019880192840E0632168009A75
:10D3E000801A2840891A0D40ED1CA84209D22068F5
:10D3F000E0632F20FFF77EFE2F480760F7BDFFF7A1
:10D4000088FEF7BD8414002004150140F0B585B0F6
:10D410000024B64D28690390E96802916A781100EA
:10D42000AB789A420FD0491CC9B2022900D1002121
:10D430008A00AA185269019280180002000A286125
:10D440000120009001E0019400946970FFF7B8FE9C
:10D450000600E868009900291FD00199009413E0A4
:10D46000C91A009EF3180093002313600190D0693D
:10D47000D368002B08D0039E009FF6193602360AA7
:10D4800056609360D461019C002805D002001368A7
:10D490009942E5D2591A11600126E8602000FFF791
:10D4A000EBFE002801D1002E02D00298FFF764FFA6
:10D4B0000020287105B0F0BD00E200E00810014036
:10D4C00010B54278521C8478D3B2A34200D1002216
:10D4D0000478D3B2A34201D1002010BD0A70416884
:10D4E000407818225043081810BDF0B583B00C00E6
:10D4F00017001E00C00000907D4D01A9A868009A89
:10D500008018FFF7DDFF002801D10420FEBD0121B6
:10D5100001704460774909688160C76006610899B5
:10D52000416168460079A968D6E080B5724800215B
:10D53000016441648164C16401604160FFF702FEDF
:10D5400001BD80B5FFF762FF01BDFBB515000327E4
:10D550003D4204D10026654C002D02D1A660072073
:10D56000FEBDFFF7D6FD0298E0612770A560183573
:10D570000020A168C20089180E704E706A461279A8
:10D580008A704D6069460979182251436D18401C14
:10D590000328EEDBE6606670A67080256D033A48CE
:10D5A000056003211420FFF78BFD38480560514DBD
:10D5B0000098686003211120FFF782FD2868206130
:10D5C0000020FEBD4A4B9B68002B09D0130001D000
:10D5D000002801D1072070470068037C002B01D090
:10D5E00008207047037441744261002070470000B6
:10D5F000FFFF7F0041480068C205D20D1CD0103AE1
:10D60000D1001820084052B20321002A04D53C4B17
:10D610001207120F083A00E03A4B920892009A580B
:10D62000C24090090140012902D0032902D003E041
:10D63000002070470120704702207047FFFFFF0065
:10D64000F8B504000D00170029488068002808D0AC
:10D65000002C06D0052D01D20720F2BD60690028FC
:10D6600001D10820F2BD607C012801D12E0000E02C
:10D670000026FFF7BFFF009733002A002100FFF7C5
:10D6800034FFF2BD0413014080E200E000E100E05D
:10D6900000100140F0B583B00400144EB768002FAD
:10D6A00004D0002C02D06069002801D10820FEBD02
:10D6B00000252574FFF79EFFC000009001A93818CF
:10D6C000FFF7FEFE002801D10420FEBD02210170FB
:10D6D000446068460079B168009A891848708020D3
:10D6E0004003094908600020FEBD000084140020AA
:10D6F00084140020041501400011014004ED00E0F5
:10D700001CED00E000E400E000E200E0BFF34F8F1A
:10D71000034804490860BFF34F8F00BFFDE700BF17
:10D720000400FA050CED00E0F1B500200024AC4A3D
:10D730008300D3586D462D78AB4202D0401C04289C
:10D74000F6D304282FD2AD4E42001218B518371860
:10D75000002917D002291ED01ED22C786878002804
:10D760000DD032000D3271690A204143300064301F
:10D77000FFF766FF002802D1684600787073A8782A
:10D78000387409E030006430FFF784FFAC78387CEF
:10D79000A04208D100E06C78200004D0316A080073
:10D7A00001D020008847F1BD80B502210078FFF745
:10D7B000BBFF01BDF1B584B0002500208F4EF1699B
:10D7C000CA4303921146E02252040A400092716952
:10D7D0008A00511802916946097C0191B94C802256
:10D7E00092035100019B172B17D802A7FF5C7F0003
:10D7F000BF4400BF0C14142A37485E6F767F767FD3
:10D80000D88C8C8C8C8CB9BFC7CFD8D80399F02218
:10D8100052040A406260A5603573CAE000986060F7
:10D82000A5606846007C2168F0235B044B401340F0
:10D8300005D06260A56002281ED1122031E0A260EE
:10D84000656002282DD01BE000986060A56020680C
:10D85000F02149044140114020D06260A5600820B9
:10D860001FE000986060A5602068F02149044140F5
:10D87000114003D06260A560282012E0A2606560BC
:10D8800004200EE000986060A5602068F021490443
:10D890004140114002D06260A56001E0A260656075
:10D8A00002206946097C317300227169414328E0F6
:10D8B00000986060A5602068F02149044140114053
:10D8C00002D06260A56001E0A2606560062030734E
:10D8D0000CE000996160A560A2606560072167E0C7
:10D8E00020680A00824362600140A16000227169E1
:10D8F00007E020680A00824362600140A1600022C4
:10D90000029930002430FFF79BFE52E03000443093
:10D91000FFF7C0FE1121019A891A1CD000281AD1E4
:10D9200080221204F26102290ED300957769C82083
:10D9300041430800642100F0EFF84743390000221A
:10D9400030004430FFF77CFEF169F02252040A40B7
:10D95000A26065602DE0F169F02252040A40626025
:10D96000A560F56125E0F02149046160A560122100
:10D970001EE0E02149046160A560A260656013219A
:10D9800016E0D02252046260A560A1606560142197
:10D990000EE0C02149046160A5608908A16065604E
:10D9A000152105E0F0214904A16065606946097C04
:10D9B000317305B0F0BD00003248017EC90700D4C4
:10D9C000704780B5007BFFF7F5FE01BD3D4801685B
:10D9D0008022120413008B4343600A408260704728
:10D9E000E8DA000080B50021264A127ED20702D56F
:10D9F000FFF7E0FE0100080002BD0000D012002089
:10DA0000F8B505000F00002600201E494F618D610A
:10DA10000A62A9071DD5002401220121200000F07F
:10DA200033F8641C042C01D20028F5D0002804D15E
:10DA30007A08042130A000F01FF9002801D100F07D
:10DA40004FF9002805D1204A002100BF25A0FFF78B
:10DA5000B9FDE90705D51D49F02252040A604E6060
:10DA60000A61002805D11A4A002100BF1BA0FFF758
:10DA7000A9FD002805D1174A012100BF18A0FFF712
:10DA8000A1FDF2BDD012002030B503000020042B10
:10DA900016D2012A05D1012902D11A000D3200E067
:10DAA00000220D4C5D00EB18E318002906D0022976
:10DAB00002D005D21A7030BD5A7030BD9A7030BD98
:10DAC000072030BD04050050A9D70000080500500C
:10DAD000B9D90000CDD90000D0120020F4120020E6
:10DAE0001413002034130020110000001200000065
:10DAF00013000000140000001100030029D70000EB
:10DB00001200030029D700001300030029D70000EA
:10DB10001400030029D700000022030A8B420BD215
:10DB200003098B4219D243088B422ED2411A00D2EC
:10DB30000146524110467047FF2209023FD01206AB
:10DB40008B4205D3121209028B4201D31212090231
:10DB500003098B4219D300E0090AC3098B4201D3A0
:10DB6000CB01C01A524183098B4201D38B01C01AE9
:10DB7000524143098B4201D34B01C01A5241030960
:10DB80008B4201D30B01C01A5241C3088B4201D30F
:10DB9000CB00C01A524183088B4201D38B00C01ABC
:10DBA000524143088B4201D34B00C01A5241884274
:10DBB00000D3401A5241CFD201461046704708B5F3
:10DBC000C046C04608BDFEE7D0B500244C4F09E072
:10DBD00000204840012141407368180001D0100026
:10DBE0009847641C3978E0B288421CD27868E4B265
:10DBF000E100461831780120884039690842F0D0A8
:10DC000081433961307800F0B7F901003278F86863
:10DC1000012393400340080090408342E1D1707893
:10DC20000128D5D1D5E7D0BDF8B507000125BD4005
:10DC3000334C20001430FFF72DFD00281AD1206945
:10DC4000EE43284214D1380000F096F9E16800282C
:10DC500001D0294301E00E403100E1602069054315
:10DC600025610022A16820001430FFF7E9FCF1BD16
:10DC700006402661F1BD0000F8B506000C00150055
:10DC8000052D01D20720F2BD00F0D0F8002803D105
:10DC900000F0AAF8002822D1194846600470856077
:10DCA0000021C1600161174D19A72000441E002802
:10DCB0000FD038680090E4B2E000301881786A46EE
:10DCC00051702A006946007800F0BEF80028ECD0B8
:10DCD000F2BD0D4A002100BF0CA0FFF773FCF2BD9E
:10DCE00038B50024064D06E001216868E200805C3A
:10DCF00000F0FEF8641C28788442F5D3002032BD81
:10DD00001C14002029DC0000C9DB000030140020B6
:10DD100003000000484940180068012800D0002096
:10DD2000704752000A4399001143009A12020A43B5
:10DD3000019909041143414A8000115070473F4A3C
:10DD40008000101802683E4B13400360026809040B
:10DD50001143016070473B490818202140560428B0
:10DD60008041C00F704737490818202140560428C9
:10DD700001DB01207047002070473249081820213C
:10DD80004056C043C00F704771B581B00020C043FA
:10DD90000423140002D10425082300E00025294CA7
:10DDA00000E06D1C9D4212D2AE00A61900963668A6
:10DDB0008642F6D1019BE31820269D55009801600C
:10DDC000002A03D1019861193C228854280040B2EE
:10DDD00076BD44490022D2438300CA50042802DBA6
:10DDE00008183C214254704738B5164C4420205C3A
:10DDF000002801D0082032BDFF2220212000203041
:10DE000000F048F900252800FFF7E3FF6D1C082DFE
:10DE1000F9DB0321062000F05BF98020000632497F
:10DE20000860012044216054002032BD2F48007852
:10DE3000002800D00120704700600040000700501B
:10DE4000FFFFFCFFD4130020F0B583B007000E00E5
:10DE500015000024FFF791FF002801D008243EE0C0
:10DE6000F27829003800FFF78FFF05000020C0433B
:10DE7000854233D0B078002807D07F48B9004018D9
:10DE8000016802229143016007E0019000907378DD
:10DE9000002200213800FFF744FF3078F178002994
:10DEA00013D03449AA0089180A68744B13400B60D8
:10DEB0000A683B02F8256D011D400004C0239B0247
:10DEC00003402B4313430B6009E06D494A193C237F
:10DED000D25C800110434919C85400E0042420009A
:10DEE000FEBD0000D413002004630040181400207D
:10DEF000F2B50700624CE5190126FFF734FF002850
:10DF000015D02020285620183C2140560006800FAE
:10DF10000221032804D15B480068F840064000E075
:10DF2000012800D003213800FFF709FFF1BD3800B8
:10DF3000FFF711FF00281CD0202028560D49820031
:10DF400089180A6832430A60002182003302D2181D
:10DF500012B2484BD218116069460978002908D0DE
:10DF60002021695689006158002902D08640464820
:10DF70000660F1BD1065004042490968C140C8070C
:10DF8000C00F7047F8B50026009680256D0001246B
:10DF9000042728B2FFF7BEFE002809D03A480068DF
:10DFA000204005D000202DB2324969180860264370
:10DFB00064002D1D7F1EECD180273F06BE2040004F
:10DFC000FFF7A8FE002806D00020314908603E4334
:10DFD0002C4800680090300713D0012400253442FB
:10DFE0000BD0AA0029488118086809688903890F9D
:10DFF000C004C00E224B9A58904764006D1C042D3B
:10E00000EDD3374035D000251D48401940214056FA
:10E010000021C943884229D0C0B20600C0218E43E6
:10E0200017498A192023D25692008C5821001DD0FE
:10E030000006870F1048B10040588003800F01216F
:10E04000B140009A0A4002D002280FD101E0032813
:10E050000CD1032F07D1022801D1032100E00221B6
:10E060003000FFF76CFE39003000A0476D1C042D16
:10E07000CAD3F1BD0060004000070050FFE0FCFF84
:10E08000D4130020100500500463004010650040C8
:10E090007C6100401206130A1A43130C1A4300BF96
:10E0A000130030B414001500103902D310393CC0ED
:10E0B000FCD2490700D30CC000D504C0890002D3AC
:10E0C0000280801C002900D5027030BC704700001F
:10E0D00010B5C20018231340FF249C40E243890777
:10E0E000090E9940030007D50C4B0407240F083C88
:10E0F000A408A4001B1903E0094C83089B00E31843
:10E100001C682240114319600121C006C00E8140E5
:10E11000044801600448016010BD00BF1CED00E030
:10E1200000E400E080E200E000E100E01CB56846A9
:10E130000021002206C0404C20786946C8716A461A
:10E1400008210020C7DF002803D000220021FFF7AC
:10E15000DDFA2078401C207013BD0178002900D022
:10E16000704780B5407803280AD1FFF7DFFF082009
:10E17000FFF738FC002803D000220021FFF7C6FA81
:10E1800001BD000010B584B000232C4A05210020F9
:10E19000FFF7DBF9002803D000220021FFF7B6FAD1
:10E1A000002227490120FFF72BFC002803D0002282
:10E1B0000021FFF7ABFA234800F09EF8002803D0B7
:10E1C00000220021FFF7A2FA0023002200210820EC
:10E1D00000F086F8002803D000220021FFF796FA0D
:10E1E00000F0A6F8002803D000220021FFF78EFAE5
:10E1F000684600BF15A11CC91CC0684600F0AAF8FB
:10E20000002803D000220021FFF780FAFFF78EFFDD
:10E210000020C4DF002803D000220021FFF776FA97
:10E2200072B609488021890301600022426030BF34
:10E230004160026062B6F3E7040900200811002083
:10E24000CD0C00005BE100000805005000500042CA
:10E25000010202000020000080B508001100C04645
:10E26000C04601BDD0B582B02F4C2078002836D0F2
:10E270000026E068002801D1012700E00027A068FF
:10E28000002800D10126002F0FD1684651DF052854
:10E2900001D1012709E0002804D000220021FFF766
:10E2A00035FA02E00098E1688847002E15D1220077
:10E2B00012322100113120001030C1DF052801D1B8
:10E2C00001260AE0002804D000220021FFF71EFAF0
:10E2D00003E020001030A16888473742D3D0D3BD77
:10E2E00080B5114A5360114910DF002803D1012085
:10E2F000107016202EDF02BD010001D10E207047E4
:10E30000094988600020704780B5074840680100CF
:10E3100007D08047002806D000220021FFF7F6F939
:10E3200001BDFFF79FFF01BD5014002059E200001E
:10E3300010B584B0684600BF03A11CC91CC0684664
:10E34000FADF04B010BD00000100000054130020EB
:10E350008000000010B50400A378A27A61782078CC
:10E36000C2DF002811D123796279A1792078D3DF27
:10E3700000280AD1E1782078CDDF002805D1A178E6
:10E38000C90702D421892078D1DF10BD10B5F02251
:10E390000F2018490B78012B1BD14B68034018D173
:10E3A0008B68134202D1CC6814400CD0F0241C407E
:10E3B000102C02D1CC68144005D01340302B08D16A
:10E3C000CB68134005D10C4B0C4C2360E30B0C4C79
:10E3D00023600B78012B0CD14B68184009D1886859
:10E3E0001040402805D1C868024002D101200549EB
:10E3F000086010BDE00F00F0DFFF07C0040500401B
:10E40000186C00400806004070B40121002213E09F
:10E410000468001D0C4202D04D466D1E6419226036
:10E42000241D1B1F042BFAD225009E0701D5228034
:10E43000AD1C0B4000D02A700368001D002BE7D1F3
:10E4400070BC704730B401210268001D002A0FD053
:10E450000368C318446808300C4202D04D466D1E54
:10E4600064191D6825601B1D241D121FECD0F8E7E0
:10E4700030BC70470321064802680A430260054821
:10E4800002680A43026004488047044800470000CD
:10E4900024050040540500408DE3000029E50000FC
:10E4A00010B5074979441831064C7C44163404E011
:10E4B000081D0A68891888470100A142F8D110BDDB
:10E4C000080000002800000041FFFFFF9C0300003F
:10E4D00008110020000000006DFFFFFF0800000091
:10E4E0005400000000090020000000000120C04688
:10E4F000002801D0FFF7D4FF0020C046C046FFF738
:10E5000041FE00F000F880B500F002F801BDFEE722
:10E510000746384600F002F8FBE7FEE72021090332
:10E5200026311820ABBEF9E7C046C046C046C046FB
:10E53000FFF7DCFF0024F40001000000FEE7FEE727
:10E54000FEE7FEE7FEE7FEE7FEE7FEE7FEE7FEE7A3
:10E55000FEE7FEE7FEE7FEE7FEE7FEE7FEE7FEE793
:0AE56000FEE7FEE7FEE7FEE7FEE738
:040000050000E529E9
:00000001FF
